:020000040800F2
:1000000000040020258A0008D9860008E18600083F
:10001000358700083D87000845870008000000007C
:10002000000000000000000000000000758A0008C9
:100030004D87000800000000DD34000003030000CD
:10004000758A0008758A0008758A0008758A000894
:10005000758A0008758A0008758A0008758A000884
:10006000758A0008758A0008758A00085D8700088F
:100070007D87000891870008A5870008B9870008D8
:10008000CD870008E1870008758A0008FD8900080F
:10009000118A0008758A0008758A0008758A0008A8
:1000A000758A0008758A0008758A0008758A000834
:1000B000758A0008758A0008758A0008758A000824
:1000C000758A0008F5870008098800081D8800085F
:1000D000758A00083188000845880008598800089A
:1000E000758A0008758A000800000000758A0008FB
:1000F000758A0008758A0008758A00086D880008EE
:10010000758A000881880008758A0008758A0008C9
:1001100095880008A9880008BD880008758A00082D
:10012000D1880008E5880008F98800080D890008D2
:100130002189000835890008758A0008758A000839
:1001400000000000000000000000000000000000AF
:10015000498900085D8900087189000885890008BF
:10016000758A0008758A0008758A0008758A000873
:10017000758A0008758A0008758A0008758A000863
:10018000758A0008758A000899890008AD890008F9
:10019000758A0008758A0008758A0008758A000843
:1001A000758A0008758A0008758A0008758A000833
:1001B000758A0008758A0008758A0008758A000823
:1001C000758A0008758A0008758A0008758A000813
:1001D000758A0008758A0008758A0008758A000803
:1001E000758A0008758A0008758A0008758A0008F3
:1001F000758A0008758A0008758A0008758A0008E3
:10020000758A0008758A0008758A0008758A0008D2
:10021000758A0008758A0008758A0008758A0008C2
:10022000758A0008758A0008758A000800000000B9
:10023000758A0008758A000800000000758A0008A9
:10024000758A0008C1890008D5890008758A0008E8
:10025000758A0008758A0008758A0008758A000882
:10026000758A0008758A0008758A0008758A000872
:10027000758A0008758A0008E989000800000000F6
:10028000758A0008758A0008758A00080000000059
:1002900000000000758A0008000000000000000057
:1002A00072B61D481D4901F1040101604FF0E020C4
:1002B0001B49C0F8081D1B481949096801601A4804
:1002C000016841F0010101604FF0E02017494161F0
:1002D0004FF0070101614FF00001C0F8181D4FF009
:1002E0007F41C0F81C1D1249C0F8201D7047FFF760
:1002F000FEBFFFF7FEBFFFF7FEBF01B5BDE801403F
:10030000704701B503F054F9BDE801407047FFF7AD
:10031000FEBFFFF7FEBF00008C2B01240000003061
:1003200000000000902B0124001000E0FF520700A5
:100330000000FF4080B596B000AFF860B9607A6009
:100340003B607B68033323F003037B60EFF3108390
:100350007B637B6B3B6372B63B6B7B65554B1B686A
:10036000BB640023FB64FB68BA6C1A627B6D7B6222
:100370007B6A83F3108800BF7968F86800F0B2F9EF
:100380007864EFF31083FB62FB6ABB6272B6BB6AF0
:100390007B657B6C002B02D00123FB6406E0FB68CD
:1003A0001B6ABA6C9A4201D10123FB64FB6C002BDF
:1003B000D9D0BB687A6C1A607B6C002B08D07B6D3F
:1003C0003B623B6A83F3108800BF00233B656CE00F
:1003D0003B68002B61D0384B1B68002B07D01023E3
:1003E0003B657B6DFB61FB6983F310885DE0BB6C53
:1003F000324A9A66BB6CFA68DA66BB6CBA68DA672E
:10040000BB6C7A689A67BB6CD3F8B0305A1CBB6C73
:10041000C3F8B020FB689B6A3B64FB689B6A5A1C6C
:10042000FB689A623B6C002B09D1FB68BA6C5A627C
:10043000BB6CBA6C1A67BB6CBA6C5A6711E0FB688C
:100440005B6AFB63BB6CFA6B1A67FB6B5B6FBB632E
:10045000BB6CBA6B5A67BB6BBA6C1A67FB6BBA6C36
:100460005A67BB6C09221A63BB6C01229A63BB6C8E
:100470003A68DA64104B1B6801330F4A13607B6DD6
:10048000BB61BB6983F3108800BFB86C02F036FB18
:10049000BB6CD3F884303B6507E07B6D7B617B6987
:1004A00083F3108800BF10233B653B6D1846583717
:1004B000BD4680BD942B0124302C0124C1040000D2
:1004C00080B58EB000AF78603960EFF310833B6287
:1004D0003B6AFB6172B6FB697B637B689B6E334A48
:1004E000934258D17B68D3F8B0303A689A4252D1DF
:1004F0007B68DB6E3B633B6B002B4CD03B6B1B681C
:100500002B4A934247D13B6B9B6A002B43D07B68BD
:1005100000229A663B6B9B6A5A1E3B6B9A623B6B4E
:100520009B6AFB62FB6A002B03D13B6B00225A6281
:1005300013E07B681B6FBB627B685B6F7B62BB6A8F
:100540007A6A5A677B6ABA6A1A673B6B5B6A7A682F
:100550009A4202D13B6BBA6A5A627B681B6B092BC9
:1005600019D17B681022C3F88420124B1B68013319
:10057000104A13607B6B3B613B6983F3108800BFBB
:10058000786802F0A7F9EFF31083BB61BB697B6168
:1005900072B67B697B637B6BFB60FB6883F31088BF
:1005A00000BF00BF3837BD4680BD00BFC10400009A
:1005B00045545942302C012480B58EB000AFF8600C
:1005C000B9607A603B6034220021F86804F09CFB3B
:1005D0003B6823F003033B60FB68BA685A60FB6822
:1005E0007A689A61FB683A68DA61FB687A681A612E
:1005F000FB687A685A613B68A3F10802FB689A605D
:10060000FB680222DA607B687B637A6B3B68134489
:100610007B637B6B043B7B63FB683B637B6BFB62B5
:10062000FB6A3A6B1A607B6B043B7B637B6BFB6200
:10063000FB6A7A681A607B683B633B6BFB62FB6A10
:100640007A6B1A607B687B637B6B04337B637B6BA9
:10065000BB62BB6A1F4A1A60FB6800221A62EFF392
:100660001083BB61BB697B6172B67B697B62FB688F
:10067000194A1A60194B1B68002B09D1184AFB68EC
:100680001360FB68FA68DA62FB68FA681A6311E0C3
:10069000134B1B683B623B6A1B6BFB613B6AFA684E
:1006A0001A63FB69FA68DA62FB68FA691A63FB6825
:1006B0003A6ADA62094B1B680133084A13607B6AA5
:1006C0003B613B6983F3108800BF0023184638372D
:1006D000BD4680BDEEEEFFFF45545942882B0124F4
:1006E000842B012480B497B000AF78603960002378
:1006F0007B64EFF310837B627B6A3B6272B63B6A7A
:100700007B657B689A687B68DB68023BDB0013448F
:100710003B643A683B6C9A4208D37B6DFB61FB6992
:1007200083F3108800BF00233B65DDE0724B1B683C
:10073000FB637B68FA6B1A627B685B693B657B686D
:10074000DB680133BB640023FB643B6D0433BB6394
:10075000BB6B7B637B6B1B68684A934243D17B6CAA
:10076000002B04D17B683A6D5A6101237B643B6D99
:100770003B633B6B1B68FB62FA6A3B6DD31AFB64FD
:10078000FB6C083BFB64FA6C3B689A4257D200232F
:10079000FB64FB6A0433BB63BB6B7B637B6B1B68D3
:1007A000564A934213D1FB6ABB62BB6A1A683B6B21
:1007B0001A607B68DB685A1E7B68DA607B685B695D
:1007C000FA6A9A4214D17B683A6D5A6110E0FB6A6A
:1007D000BB62BB6A1B683B65BB6C002B08D0BB6C63
:1007E000013BBB6404E03B6D3B633B6B1B683B65BB
:1007F000BB6C002B02D0BB6C013BBB647B6D3B61CF
:100800003B6983F3108800BFEFF31083BB61BB69C2
:100810007B6172B67B697B657B681B6AFA6B9A4267
:1008200009D07B685B693B657B68DB680133BB642F
:100830007B68FA6B1A62BB6C002B86D100E000BFAC
:10084000FB6C002B48D0FA6C3B68D31A132B1ED9D3
:100850003B6808333A6D1344FB62FB6ABB623B6D35
:100860003B633B6B1A68BB6A1A60FB6A0433BB6369
:10087000BB6B7B637B6B214A1A607B68DB685A1C0D
:100880007B68DA603B6BFA6A1A603B68FB643B6D1D
:100890000433BB63BB6B3B633B6B7A681A607B685A
:1008A0009A68FB6CD31AA3F108027B689A607B6894
:1008B0005B693A6D9A4205D13B6D3B633B6B1A68AD
:1008C0007B685A617B6DFB60FB6883F3108800BF17
:1008D0003B6D08333B6507E07B6DBB60BB6883F312
:1008E000108800BF00233B653B6D18465C37BD4652
:1008F0005DF8047B704700BF942B0124EEEEFFFFF0
:1009000080B59EB000AF786000233B670023FB6694
:10091000EFF310837B637B6B3B6372B63B6B7B6750
:100920007B68BB66BB6E002B27D0BB6E083BBB66EB
:10093000BB6E04337B667B6E3B663B6E1B687E4AF8
:10094000934217D0BB6E04337B667B6EFB65FB6DF9
:100950001B68FB66FB6E002B02D103233B670EE096
:10096000FB6E1B68754A934209D003233B67002343
:10097000FB6604E003233B6701E003233B67FB6E58
:10098000002B05D17B6FFB62FB6A83F31088CDE0FF
:100990006B4B1B68BB65FB6EBA6D1A62BB6E043392
:1009A0007B667B6E3B663B6E634A1A60BB6E7B6503
:1009B0007B6D1B683B65FB6E9B68396DBA6E8A1A4E
:1009C0001A44FB6E9A60FB6E5B69BA6E9A4202D261
:1009D000FB6EBA6E5A61FB6E9B6A002B00F0A08022
:1009E0008EE0FB6E5B6AFB64FB6C9B6FBB647B6F92
:1009F0003B623B6A83F3108800BFB96CF86EFFF767
:100A000071FEB866EFF31083BB62BB6A7B6272B69D
:100A10007B6A7B67FB6EBA6D1A62BB6E002B75D06A
:100A2000FB6E5B6AFA6C9A4247D1FB6C9B6FBA6CA7
:100A30009A4242D1FB6E9B6A5A1EFB6E9A62FB6E13
:100A40009B6A7B647B6C002B03D1FB6E00225A6295
:100A50000EE0FB6C1B6F3B64FB6E3A6C5A62FB6CE6
:100A60005B6FFB633B6CFA6B5A67FB6B3A6C1A6704
:100A7000FB6C00229A66FB6CDB6FBB63BB6BBA6ED0
:100A80001A600023BB66FB6C0022C3F884202D4B48
:100A90001B6801332B4A13607B6F7B617B6983F397
:100AA000108800BFF86C01F015FFEFF31083FB61B5
:100AB000FB69BB6172B6BB697B67BB6E002B1FD045
:100AC000BB6E083BBB66BB6E04337B667B6E3B66CE
:100AD0003B6E194A1A60BB6E7B657B6D1B683B657C
:100AE000FB6E9B68396DBA6E8A1A1A44FB6E9A6067
:100AF000FB6E5B69BA6E9A4202D2FB6EBA6E5A61A5
:100B0000FB6E9B6A002B7FF46CAF00E000BF7B6F35
:100B10003B613B6983F3108800BF01F0A1FE05E053
:100B20007B6FFB60FB6883F3108800BF3B6F184648
:100B30007837BD4680BD00BFEEEEFFFF45545942F9
:100B4000942B0124302C012480B58EB000AF786046
:100B50003960EFF31083FB61FB69BB6172B6BB695F
:100B60007B637B689B6E384A934262D17B68D3F883
:100B7000B0303A689A425CD17B68DB6E3B633B6B7A
:100B8000002B56D03B6B1B68304A934251D13B6BD4
:100B90005B69002B4DD07B6800229A663B6B5B69DA
:100BA000FB623B6B1B69BB62BB6A002B20D0FB6AFC
:100BB000013BFB623B6BFA6A5A61FB6A002B03D173
:100BC0003B6B00221A6116E07B681B6F7B627B68BF
:100BD0005B6F3B627B6A3A6A5A673B6A7A6A1A675A
:100BE000BA6A7B689A4206D13B6B7A6A1A6102E064
:100BF0003B6B0122DA607B681B6B072B19D17B688A
:100C00000722C3F88420124B1B680133104A13607B
:100C10007B6BFB60FB6883F3108800BF786801F092
:100C200059FEEFF310837B617B693B6172B63B69D0
:100C30007B637B6BBB60BB6883F3108800BF00BF26
:100C40003837BD4680BD00BF490B00004E445644B6
:100C5000302C012480B588B000AF7860396028223C
:100C60000021786804F050F87B683A685A60EFF326
:100C700010833B613B69FB6072B6FB68FB617B687C
:100C8000184A1A60184B1B68002B09D1174A7B6859
:100C900013607B687A689A617B687A68DA6111E030
:100CA000124B1B68BB61BB69DB697B61BB697A68FE
:100CB000DA617B697A689A617B687A69DA617B6854
:100CC000BA699A61084B1B680133074A1360FB69D4
:100CD000BB60BB6883F3108800BF00231846203731
:100CE000BD4680BD4E445644702B01246C2B01241C
:100CF00080B596B000AFF860B9607A603B60EFF302
:100D000010837B627B6A3B6272B63B6A7B65FB68E1
:100D10009B68FB64FB681B6ADA43FB6C1A403B6808
:100D20001A607B6803F002033B64FB681B6AFB6389
:100D3000FB6B002B04D0FB6BDB43FA6C1340FB64B2
:100D40003B6C022B0AD1FA6CBB681340BB64BA6CD3
:100D5000BB689A4206D00023BB6403E0FA6CBB6810
:100D60001340BB64BB6C002B26D07B6803F00103EF
:100D7000BB62BB6A012B1CD100237B64FB685B69EF
:100D8000002B05D0FB681B69002B01D101237B647C
:100D90007B6C012B06D1FB681A6ABB681A43FB689F
:100DA0001A6206E0FB689A68BB68DB431A40FB687E
:100DB0009A6000233B6573E03B6E002B6ED03E4B88
:100DC0001B68002B02D1BB68002B02D107233B65B7
:100DD00066E03A4B1B68BB63BB6B394A9A66BB6BD8
:100DE000BA689A67BB6B7A68C3F88020BB6B3A68B5
:100DF000DA67BB6BFA68DA66BB6BD3F8B0305A1CA3
:100E0000BB6BC3F8B020FB685B697B637B6B002B1B
:100E100009D1FB68BA6B1A61BB6BBA6B1A67BB6B03
:100E2000BA6B5A6711E0FB681B693B63BB6B3A6B9B
:100E30001A673B6B5B6FFB62BB6BFA6A5A67FB6AB4
:100E4000BA6B1A673B6BBA6B5A67FB685B695A1CD3
:100E5000FB685A61BB6B07221A63BB6B01229A6362
:100E6000BB6B3A6EDA64144B1B680133124A136091
:100E70007B6D7B617B6983F3108800BFB86B01F0E9
:100E80003DFEEFF31083FB61FB69BB6172B6BB698A
:100E90007B65BB6BD3F884303B6501E007233B6582
:100EA0007B6D3B613B6983F3108800BF3B6D184647
:100EB0005837BD4680BD00BF302C0124942B01243F
:100EC000490B000080B5A8B000AFF860B9607A6047
:100ED000EFF310833B653B6DFB6472B6FB6CC7F8A8
:100EE0009C307B6803F00203002B23D00023BB67F8
:100EF000FB685B69002B05D0FB681B69002B01D1E7
:100F00000123BB67BB6F012B07D1FB681A6ABB6863
:100F1000DB431A43FB681A6205E0FB689A68BB680A
:100F20001A40FB689A60D7F89C30BB64BB6C83F3B3
:100F30001088F0E1FB685B6A7B67FB689A68BB68B6
:100F40001A43FB689A60FB681B6A002B06D0FB689B
:100F50001A6ABB68DB431A40FB681A620023FB670E
:100F6000FB685B69C7F88830FB681B69002B00F0E1
:100F7000B981D7F88830012B70D1FB681B69C7F89D
:100F80009830FB689B68C7F88430D7F898309B6F1F
:100F9000FB66D7F89830D3F88030BB66BB6E03F0A1
:100FA00002037B667B6E022B0ED1D7F88420FB6E8A
:100FB0001340C7F88030D7F88020FB6E9A4209D0E2
:100FC0000023C7F8803005E0D7F88420FB6E13407B
:100FD000C7F88030D7F88030002B00F08A81D7F82E
:100FE0009830DB6F3B663B6ED7F884201A60BB6E8F
:100FF00003F00103FB65FB6D012B06D1FB689A68CA
:10100000FB6EDB431A40FB689A60FB6800221A61A2
:10101000FB6800225A61D7F8983000229A66D7F808
:1010200098300022C3F88420AD4B1B680133AC4AD2
:101030001360D7F89C30FB63FB6B83F3108800BF11
:10104000D7F8980001F046FCEFF310837B647B6CCB
:101050003B6472B63B6CC7F89C304AE1FB681B6985
:10106000C7F88C30D7F88C30C7F89830FB6800226E
:101070001A610023C7F894300023C7F89030FB684A
:101080009B68C7F88430964B1B680133944A136001
:101090000123FB67D7F89C303B633B6B83F31088DD
:1010A00000BFEFF31083BB63BB6B7B6372B67B6BDC
:1010B000C7F89C30FB68DB68002B11D0FB6800226E
:1010C000DA60D7F88C30C7F89830FB685B69C7F8EE
:1010D0008830FB689B68D7F884201343C7F88430B6
:1010E000D7F898301B6F3B67D7F898309B6FFB663B
:1010F000D7F89830D3F88030BB66BB6E03F002039C
:101100007B667B6E022B0ED1D7F88420FB6E1340DA
:10111000C7F88030D7F88020FB6E9A4209D00023B0
:10112000C7F8803005E0D7F88420FB6E1340C7F87D
:101130008030D7F898301B6B072B02D00123C7F8FB
:101140008030D7F88030002B6AD0D7F898301B6BEE
:10115000072B1ED1D7F89830DB6F3B663B6ED7F874
:1011600084201A60BB6E03F00103FB65FB6D012B4D
:1011700006D1FB689A68FB6EDB431A40FB689A60F5
:10118000D7F8983000229A66D7F898300022C3F832
:101190008420D7F898301B6FD7F898209A4203D153
:1011A0000023C7F88C3018E0D7F898301B6FBB6568
:1011B000D7F898305B6F7B65BB6D7A6D5A677B6D36
:1011C000BA6D1A67D7F88C20D7F898309A4204D1B4
:1011D000D7F898301B6FC7F88C30FB685B695A1ED4
:1011E000FB685A61D7F89430002B0CD1D7F89830AF
:1011F000C7F89430D7F89830C7F89030D7F89830BF
:1012000000221A670CE0D7F89030D7F898201A67B8
:10121000D7F8983000221A67D7F89830C7F890307E
:101220003B6FC7F89830D7F88830013BC7F8883053
:10123000D7F88830002B7FF42DAFFB68D7F88C20CF
:101240001A61FB681B6A002B0AD0FB689A68FB686E
:101250001B6ADB431A40FB689A60FB6800221A6233
:10126000D7F89C30FB62FB6A83F3108800BFD7F885
:101270009430C7F898301FE0D7F898301B6F3B6761
:10128000EFF310837B627B6A3B6272B63B6AC7F8FE
:101290009C30134B1B680133114A1360D7F89C3004
:1012A000BB62BB6A83F3108800BFD7F8980001F0D7
:1012B00011FB3B6FC7F89830D7F89830002BDBD183
:1012C000EFF31083FB61FB69BB6172B6BB69C7F8C2
:1012D0009C30034B1B68013B014A136009E000BFCF
:1012E000302C0124FB685B69002B02D0FB680122D3
:1012F000DA60D7F89C307B617B6983F3108800BF8C
:101300007B6F002B02D07B6FF8689847FB6F012B37
:1013100001D101F0A5FA00231846A037BD4680BDD3
:1013200080B500AF01F06CF901F0AAFE124B00226B
:101330001A60124B00221A60114B00221A60114BE6
:1013400000221A60104B00221A60104B00221A6013
:101350000F4B00221A600F4B00221A600E4B002226
:101360001A600E4B00221A600D4B00221A600D4BC2
:1013700000221A6000BF80BD5C2B0124602B012479
:10138000642B0124682B01246C2B0124702B012475
:101390007C2B0124802B0124842B0124882B012405
:1013A000742B0124782B012480B500AF104B1B68EF
:1013B00013F10F3F0CD00E4B4FF0F0321A60FEF7D6
:1013C0006FFFFFF7ADFF0B4B1B680133094A13603A
:1013D000074B4FF0F0321A60074B1B68184603F0BA
:1013E0009BFC034B00221A6002F062F800BF80BD34
:1013F00010040020302C01248C2B012480B58EB0E9
:1014000000AF78603960EFF310833B623B6AFB61A9
:1014100072B6FB697B637B689B6E334A934258D1FB
:101420007B68D3F8B0303A689A4252D17B68DB6E61
:101430003B633B6B002B4CD03B6B1B682B4A9342AE
:1014400047D13B6BDB69002B43D07B6800229A6657
:101450003B6BDB695A1E3B6BDA613B6BDB69FB6202
:10146000FB6A002B03D13B6B00229A6113E07B687F
:101470001B6FBB627B685B6F7B62BB6A7A6A5A6771
:101480007B6ABA6A1A673B6B9B697A689A4202D197
:101490003B6BBA6A9A617B681B6B0D2B19D17B6819
:1014A0001D22C3F88420124B1B680133104A1360BD
:1014B0007B6B3B613B6983F3108800BF786801F068
:1014C00009FAEFF31083BB61BB697B6172B67B697C
:1014D0007B637B6BFB60FB6883F3108800BF00BFFE
:1014E0003837BD4680BD00BFFD1300004554554D43
:1014F000302C012480B58AB000AF7860EFF3108300
:10150000FB61FB69BB6172B6BB697B621A4B1B68EE
:101510000133194A13607B68D3F8A4303B623B6AFD
:10152000002B17D03B6A01229A607B6AFB60FB6844
:1015300083F3108800BF386A00F000FBEFF31083DC
:101540007B617B693B6172B63B697B627B68D3F8E8
:10155000A4303B623B6A002BDDD1074B1B68013B8B
:10156000054A13607B6ABB60BB6883F3108800BFC9
:1015700000BF2837BD4680BD302C012480B58AB01D
:1015800000AFF860B9607A6034220021F86803F097
:10159000BBFBFB68BA685A60FB687A681A61EFF3B4
:1015A0001083BB61BB697B6172B67B697B62FB6840
:1015B0001A4A1A601A4B1B4A1A601B4B1B68002BF5
:1015C00009D11A4AFB681360FB68FA681A62FB6863
:1015D000FA685A6211E0154B1B683B623B6A5B6A12
:1015E000FB613B6AFA685A62FB69FA681A62FB6837
:1015F000FA695A62FB683A6A1A620B4B1B6801333C
:10160000094A13607B6A3B613B6983F3108800BF22
:10161000002318462837BD4680BD00BF4554554DB0
:10162000342C0124F5140000782B0124742B0124A0
:1016300080B592B000AF78603960EFF310837B62C1
:101640007B6A3B6272B63B6A3B647A4B1B68FB6306
:101650007B689B68002B44D17B6801229A607B6881
:10166000FA6BDA60FB6B002B32D07B681B69012BB5
:1016700006D1FB6BDA6A7B685A617B6820229A622A
:10168000FB6BD3F8A430FB62FB6A002B0FD0FB6A24
:101690001B6BBB62FB6A7A681A63BB6A7A68DA62A0
:1016A0007B68BA6A1A637B68FA6ADA6209E0FB6BE4
:1016B0007A68C3F8A4207B687A68DA627B687A6803
:1016C0001A63FB6BD3F8A0305A1CFB6BC3F8A02045
:1016D0003B6CFB61FB6983F3108800BF00237B64D4
:1016E000A2E07B68DB68FA6B9A420DD17B689B684D
:1016F0005A1C7B689A603B6CBB61BB6983F31088A2
:1017000000BF00237B648FE03B68002B00F08480E7
:10171000494B1B68002B08D03B6C7B617B6983F3D2
:10172000108800BF1D237B647EE07B68DB68BB63A1
:10173000FB6B424A9A66FB6B7A68DA66FB6BD3F8FE
:10174000B0305A1CFB6BC3F8B0207B68DB69002B00
:1017500009D17B68FA6B9A61FB6BFA6B1A67FB6BBA
:10176000FA6B5A6711E07B689B697B63FB6B7A6B52
:101770001A677B6B5B6F3B63FB6B3A6B5A673B6B28
:10178000FA6B1A677B6BFA6B5A677B68DB695A1CCA
:101790007B68DA61FB6B0D221A63FB6B01229A6393
:1017A000FB6B3A68DA64244B1B680133224A1360EE
:1017B0003B6C3B613B6983F3108800BF7B681B690E
:1017C000012B21D17B689A6AFB6BDB6A9A4203D9B1
:1017D000FB6BDA6A7B689A62FB6BDA6ABB6BD3F8E5
:1017E0009C309A4204D2FB6BDA6ABB6BC3F89C2034
:1017F000BB6BDA6AFB6BDB6A9A4205D9FB6BDB6A6F
:101800001946B86B00F0CEF8F86B01F077F9FB6B76
:10181000D3F884307B6407E03B6CFB60FB6883F3A8
:10182000108800BF1D237B647B6C18464837BD467B
:1018300080BD00BF942B0124302C0124FD13000037
:1018400080B592B000AF7860EFF310837B627B6A63
:101850003B6272B63B6A7B647B68DB697B637B6B54
:10186000012B05D87B6CFB61FB6983F3108892E048
:101870007B6B022B14D17B689B69BB63BB6B1B6FBB
:10188000FB62FB6ADA6ABB6BDB6A9A4202D27B6854
:10189000FA6A9A617B6CBB61BB6983F310887AE05A
:1018A0007B689B69BB63BB6BFB63FB6B1B6F3B6420
:1018B0003B4B1B6801333A4A136000233B633B6C8C
:1018C000DA6AFB6BDB6A9A4201D23B6CFB637B6C8E
:1018D000FB60FB6883F3108800BFEFF310837B612C
:1018E0007B693B6172B63B697B647B689B69BA6BC1
:1018F0009A4202D001233B6306E07B68DB697A6B86
:101900009A4201D001233B633B6B002B03D13B6C1C
:101910001B6F3B640CE07B689B69BB637B68DB6986
:101920007B63BB6BFB63FB6B1B6F3B6400233B6305
:101930003A6CBB6B9A42C2D1194B1B68013B184AE7
:101940001360FA6BBB6B9A421DD0FB6B1B6FFB6283
:10195000FB6B5B6FBB62FB6ABA6A5A67BB6AFA6A67
:101960001A67BB6B5B6FBB62FB6BBA6B1A67FB6B77
:10197000BA6A5A67BB6AFA6B1A67BB6BFA6B5A672B
:101980007B68FA6B9A617B6CBB60BB6883F31088E1
:1019900000BF00F065FF002318464837BD4680BDF4
:1019A000302C012480B592B000AF78603960EFF33D
:1019B00010833B633B6BFB6272B6FB6A7B647B68A4
:1019C0001B6B002B17D07B683A68DA627B68D3F810
:1019D00098303A689A4205D97B68D3F898207B689A
:1019E000DA6302E07B683A68DA637B6CBB62BB6AED
:1019F00083F3108896E04D4B1B683B647B68DB6A81
:101A0000FB634B4B1B680233494A13607B680E2211
:101A10001A637B6801229A637B680022DA647B6C1C
:101A2000FB61FB6983F3108800BF786801F066F8FA
:101A3000EFF310837B627B6A3B6272B63B6A7B6426
:101A40007B683A68DA627B68D3F898303A689A42E1
:101A500005D97B68D3F898207B68DA6302E07B685D
:101A60003A68DA637B6C3B613B6983F3108800BFA3
:101A7000786800F02FFFEFF31083BB61BB697B61D7
:101A800072B67B697B64294B1B68BB637A68BB6B4E
:101A90009A4241D07B681B6B002B3DD17B68DA6A90
:101AA000BB6BDB6A9A4211D87A683B6C9A4233D19D
:101AB0001E4A7B681360FA6B3B689A422CD27B68A3
:101AC000DB6A1C497A6841F8232025E07B68DA6BE1
:101AD0007B68DB6A9A421FD27B68DA6BBB6BDB6A7E
:101AE0009A420DD8114A7B681360FA6B3B689A42A0
:101AF00012D27B68DB6A0F497A6841F823200BE039
:101B00007B68DB6A012202FA03F37B630A4B1A68E3
:101B10007B6B1343084A13607B6CFB60FB6883F3A9
:101B2000108800BF00BF4837BD4680BD982B0124F8
:101B3000302C0124B02B0124A82B012480B5A6B0A1
:101B400000AF78602023C7F88830EFF31083FB657F
:101B5000FB6DBB6572B6BB6DC7F894307B689B6844
:101B6000002B00F0FF817B68DB68FB67A34B1B68E1
:101B7000BB677B68DB68BA6F9A420DD0A04B1B68CD
:101B8000002B09D1D7F894307B657B6D83F31088E7
:101B900000BF1E23C7F88830D7F88830202B40F0CC
:101BA000EB817B689B685A1E7B689A607B689B68A8
:101BB000002B0AD0D7F894303B653B6D83F3108837
:101BC00000BF0023C7F88830D6E1FB6F002B0AD195
:101BD000D7F89430FB64FB6C83F3108800BF0023BC
:101BE000C7F88830C8E1FB6FD3F8A0305A1EFB6FEE
:101BF000C3F8A020FB6FD3F8A030002B04D1FB6FFB
:101C00000022C3F8A42019E07B68DB6AC7F884309F
:101C10007B681B6B7B67D7F884307A6F1A637B6FA6
:101C2000D7F88420DA62FB6FD3F8A4307A689A423E
:101C300004D1FB6FD7F88420C3F8A4207B689B698C
:101C4000002B10D17B681B69002B0CD17B68002214
:101C5000DA60D7F89430BB64BB6C83F3108800BFA4
:101C60000023C7F88830D7F88830202B40F08481D3
:101C70000023C7F89030FB6FD3F89430C7F88C304E
:101C80007B681B69012B55D15D4B1B6801335C4A96
:101C90001360D7F894307B647B6C83F3108800BFAB
:101CA0002023C7F88030FB6FD3F8A430C7F8843006
:101CB0001FE0D7F884301B69012B0BD1D7F8843093
:101CC0009B6AD7F880209A4204D9D7F884309B6A5F
:101CD000C7F88030D7F88430DB6AC7F88430FB6FF0
:101CE000D3F8A430D7F884209A4202D10023C7F851
:101CF0008430D7F88430002BDBD1EFF310833B64C2
:101D00003B6CFB6372B6FB6BC7F894303C4B1B68B3
:101D1000013B3B4A1360FB6FD7F88020C3F89C203F
:101D2000D7F88020D7F88C309A4203D2D7F8803089
:101D3000C7F88C307B68DB69012B20D97B681B6975
:101D4000012B1CD12E4B1B6801332D4A1360D7F891
:101D500094303B633B6B83F3108800BF7868FFF7D8
:101D60006FFDEFF31083BB63BB6B7B6372B67B6B62
:101D7000C7F89430224B1B68013B214A13607B68F3
:101D80009B69002B3ED11E4B1B6801331C4A13601C
:101D9000D7F89430FB62FB6A83F3108800BF7B683E
:101DA00020229A627B68DB68DB6AD7F88C209A4233
:101DB00006D07B68DB68D7F88C101846FFF7F2FD79
:101DC000EFF310837B627B6A3B6272B63B6AC7F8B3
:101DD00094300B4B1B68013B094A13607B6800225F
:101DE000DA60D7F89430BB62BB6A83F3108800BF17
:101DF00000F036FD0023C7F88830BDE0942B0124A5
:101E0000302C01247B689B69FB677B681B69012B75
:101E10000AD17B68DB68C7F89030FB6FDA6A7B68B1
:101E20005A617B6820229A62FB6FD3F8A0303B672F
:101E30003B6F002B0AD1FB6F7A68C3F8A4207B6844
:101E40007A68DA627B687A681A6316E0FB6FD3F807
:101E5000A430C7F88430D7F884301B6B7B67D7F881
:101E600084307A681A637B6F7A68DA627B687A6F8B
:101E70001A637B68D7F88420DA623B6F5A1CFB6FC9
:101E8000C3F8A0207B6801229A607B68FA6FDA6051
:101E90007B68DB695A1E7B68DA617B68DB69FB66FD
:101EA000FB6E002B03D17B6800229A610EE0FB6F72
:101EB0001B6FBB667B68BA6E9A61FB6F5B6F7B665C
:101EC000BB6E7A6E5A677B6EBA6E1A67FB6F002222
:101ED0009A66FB6F0022C3F884202A4B1B680133EB
:101EE000284A1360D7F89430FB61FB6983F31088AC
:101EF00000BF7B681B69012B2DD17B68DB69002B40
:101F00001CD07868FFF79CFCEFF31083BB61BB69C2
:101F10007B6172B67B69C7F894307B689B693B66CE
:101F20003B6E002B03D03B6EDA6A7B689A62D7F86F
:101F300094303B613B6983F3108800BFD7F8903041
:101F4000DB6AD7F88C209A4205D0D7F88C10D7F8E6
:101F50009000FFF727FDF86F00F0BCFC0023C7F8E6
:101F6000883009E0D7F89430FB60FB6883F3108871
:101F700000BF1E23C7F88830D7F888301846983736
:101F8000BD4680BD302C012480B58CB000AFF86018
:101F9000B9607A603B603C220021F86802F0B4FE30
:101FA000FB68BA685A60FB687A689A607B689B0035
:101FB000BA6BB2FBF3F3FB62FB6A7A6802FB03F3D2
:101FC000BB62FB683A689A61FB689A69BB6A9B00CE
:101FD0001A44FB68DA61FB683A681A62FB683A687F
:101FE0005A62FB68FA6A5A61FB68FA6ADA60EFF3D0
:101FF0001083BB61BB697B6172B67B697B62FB68E6
:10200000184A1A60184B1B68002B09D1174AFB6845
:102010001360FB68FA681A63FB68FA685A6311E098
:10202000124B1B683B623B6A5B6BFB613B6AFA6865
:102030005A63FB69FA681A63FB68FA695A63FB68BA
:102040003A6A1A63084B1B680133074A13607B6ABC
:102050003B613B6983F3108800BF0023184630378B
:10206000BD4680BD55455551682B0124642B012484
:1020700080B58EB000AF7860396000237B63EFF3EA
:102080001083BB61BB697B6172B67B693B637B6814
:102090001B69FB62FB6A002B24D17B689B683A6852
:1020A0009A4208D83B6B3B613B6983F3108800BFC1
:1020B00021237B6353E07B689B685A1C7B689A6092
:1020C0007B68DB69FB613B6BFB60FB6883F310881B
:1020D00000BFFB69002B02D0FB697868984700239A
:1020E0007B633CE07B68DB68BB62FB6A013BFB62B5
:1020F000FB6A002B03D17B680022DA600EE0BB6A2A
:102100001B6F7B627B687A6ADA60BB6A5B6F3B62DB
:102110007B6A3A6A5A673B6A7A6A1A677B68FA6A24
:102120001A61BB6A00229A66BB6A0022C3F8842047
:102130007B68DB69FB610C4B1B6801330A4A136047
:102140003B6BBB60BB6883F3108800BFB86A00F0CC
:10215000C1FBFB69002B02D0FB69786898477B6B59
:1021600018463837BD4680BD302C012480B58EB06E
:1021700000AF78603960EFF310833B623B6AFB612C
:1021800072B6FB697B637B689B6E334A934258D17E
:102190007B68D3F8B0303A689A4252D17B68DB6EE4
:1021A0003B633B6B002B4CD03B6B1B682B4A934231
:1021B00047D13B6B1B69002B43D07B6800229A669A
:1021C0003B6B1B695A1E3B6B1A613B6B1B69FB62C5
:1021D000FB6A002B03D13B6B0022DA6013E07B68C3
:1021E0001B6FBB627B685B6F7B62BB6A7A6A5A67F4
:1021F0007B6ABA6A1A673B6BDB687A689A4202D1DB
:102200003B6BBA6ADA607B681B6B062B19D17B6863
:102210000D22C3F88420124B1B680133104A13604F
:102220007B6B3B613B6983F3108800BF786800F0EB
:1022300051FBEFF31083BB61BB697B6172B67B69B5
:102240007B637B6BFB60FB6883F3108800BF00BF80
:102250003837BD4680BD00BF6D210000414D45535C
:10226000302C012480B58AB000AFF860B9607A6084
:1022700020220021F86802F047FDFB68BA685A6026
:10228000FB687A689A60EFF31083BB61BB697B617E
:1022900072B67B697B62FB68184A1A60184B1B6830
:1022A000002B09D1174AFB681360FB68FA685A6172
:1022B000FB68FA689A6111E0124B1B683B623B6A4B
:1022C0009B69FB613B6AFA689A61FB69FA685A612B
:1022D000FB68FA699A61FB683A6A5A61084B1B68A5
:1022E0000133074A13607B6A3B613B6983F31088C3
:1022F00000BF002318462837BD4680BD414D4553D9
:10230000602B01245C2B012480B58EB000AF786077
:10231000396000237B63EFF310833B623B6AFB6110
:1023200072B6FB693B637B689B68002B0AD07B68B5
:102330009B685A1E7B689A603B6BBB61BB6983F3E9
:10234000108868E03B68002B5DD0354B1B68002B84
:1023500008D03B6B7B617B6983F3108800BF0D2342
:102360007B6358E02F4B1B68FB62FB6A2E4A9A6620
:10237000FB6A7A68DA66FB6AD3F8B0305A1CFB6AEB
:10238000C3F8B0207B681B69002B09D17B68FA6A0F
:10239000DA60FB6AFA6A1A67FB6AFA6A5A6711E03E
:1023A0007B68DB68BB62FB6ABA6A1A67BB6A5B6FF1
:1023B0007B62FB6A7A6A5A677B6AFA6A1A67BB6A47
:1023C000FA6A5A677B681B695A1C7B681A61FB6A48
:1023D00006221A63FB6A01229A63FB6A3A68DA648E
:1023E0000F4B1B6801330E4A13603B6B3B613B692B
:1023F00083F3108800BFF86A00F080FBFB6AD3F813
:1024000084307B6307E03B6BFB60FB6883F31088E1
:1024100000BF0D237B637B6B18463837BD4680BDFC
:10242000302C0124942B01246D21000080B592B042
:1024300000AFF860B9607A603B6000233B647A6D5E
:10244000EF21386D02F060FCB4220021F86802F040
:102450005BFCFB68BA689A62FB687A685A64FB683E
:102460003A689A64FB683A6DDA60FB687A6D5A6183
:10247000FB68BA6DDA62FB68BA6DC3F89420FB683A
:102480003A6E9A61FB683A6EDA61FB682022C3F803
:102490009C203B6DFB637B6D013BFA6B1344FB633C
:1024A000FB68FA6B1A61FB68FA6DDA63FB68FA6D18
:1024B000C3F89820FB6803221A63FB68484A5A65F0
:1024C000FA68FB689A654749F86801F051F8EFF33C
:1024D0001083FB62FB6ABB6272B6BB6ABB63FB68BC
:1024E000414A1A60414B1B68002B0BD1404AFB68E4
:1024F0001360FB68FA68C3F88820FB68FA68C3F8C1
:102500008C2016E03A4B1B687B637B6BD3F88C30D6
:102510003B637B6BFA68C3F88C203B6BFA68C3F8AB
:102520008820FB683A6BC3F88C20FB687A6BC3F891
:1025300088202E4B1B6801332C4A13602D4B1B68DF
:1025400001332C4A13607B6E012B29D1EFF30583F5
:102550007B627A6A284B1B681343B3F1F03F0DD3BB
:10256000264B1B687B647B6C002B09D07B6CDB6B80
:102570003B647B6CDA6A7B6CDA6301E000237B648A
:10258000BB6B3B623B6A83F3108800BFF86800F0C6
:10259000A1F97B6C002B1ED07B6C3A6CDA631AE0DD
:1025A000BB6B3B613B6983F3108800BFEFF3108383
:1025B000BB61BB697B6172B67B69BB630D4B1B68FA
:1025C000013B0C4A1360BB6BFB61FB6983F3108812
:1025D00000BF00F045F9002318464837BD4680BDCE
:1025E000C12E00008126000044524854A02B012433
:1025F0009C2B0124302C012410040020982B012452
:1026000080B500AF134B00221A60134B00221A60F2
:10261000124B00221A60124B00221A60114B20222A
:102620001A6080220021104802F06EFB0F4B00223E
:102630001A600F4B00221A600E4B00221A600E4BDC
:1026400000221A600D4B1B6843F080730B4A136025
:1026500000BF80BD942B0124982B0124A42B0124BE
:10266000A82B0124AC2B0124B02B01249C2B01248A
:10267000A02B0124302C0124342C0124382C0124DB
:1026800080B58CB000AF334B1B68FB62EFF3108357
:10269000BB61BB697B6172B67B69BB62FB6AD3F8C5
:1026A000AC307B62BB6AFB61FB6983F3108800BFBF
:1026B0007B6A002B03D07B6A0021F86A9847FB6A8B
:1026C0005B6CFA6A926C10469847234B1B68002B90
:1026D00003D0214B1B68F86A9847EFF310837B60A7
:1026E0007B683B6072B63B68BB62FB6AD3F8AC3078
:1026F0007B62FB6A01221A63FB6A01229A63FB6A0E
:102700000022DA64154B1B680133144A1360BB6A5C
:10271000BB60BB6883F3108800BFEFF31483FB60DA
:10272000FB683B623B6A23F004033B623B6A3B610C
:102730003B6983F3148800BF7B6A002B03D07B6A5C
:102740000121F86A9847F86A00F0D8F900BF3037DD
:10275000BD4680BD942B0124342C0124302C01244F
:1027600080B58EB000AF7860EFF31083BB62BB6AB8
:102770007B6272B67B6A3B63354B1B68FB62FB6A0C
:10278000002B08D13B6B3B623B6A83F3108800BF90
:1027900013237B6356E0EFF30583FB61FA692D4B4E
:1027A0001B681343002B08D03B6BBB61BB6983F3F1
:1027B000108800BF13237B6344E0FB6A264A9342E0
:1027C00008D13B6B7B617B6983F3108800BF1323C7
:1027D0007B6337E07B68002B08D13B6B3B613B6937
:1027E00083F3108800BF00237B632BE01B4B1B6827
:1027F000002B08D03B6BFB60FB6883F3108800BFA5
:1028000013237B631EE0FB6A04221A63FB6A012226
:102810009A63FB6A0022C3F88420FB6A7A68DA6450
:102820000E4B1B6801330D4A13603B6BBB60BB68EA
:1028300083F3108800BFF86A00F060F9FB6AD3F8F0
:1028400084307B637B6B18463837BD4680BD00BF44
:10285000942B012410040020E02C0124302C0124AE
:1028600080B489B000AF174B1B68FB61FB69002B7C
:1028700021D1154B1B68BB61144B1B687B61BA6986
:102880007B699A4217D0124B4FF080521A60EFF3D7
:1028900005833B613B69002B0CD1EFF31083FB6098
:1028A000FB68BB6062B600BFBB687B607B6883F37C
:1028B000108800BF00BF00BF2437BD465DF8047B11
:1028C000704700BF302C0124942B0124982B012445
:1028D00004ED00E080B596B000AF7860EFF31083B0
:1028E0007B637B6B3B6372B63B6B7B657B685B6E2C
:1028F000002B05D07B684C33184600F09FFC02E0AB
:102900007B680022DA64754B1B68013B734A1360D5
:102910007B689B6B002B40F096807B681B6B002BC9
:1029200000F0AA807B685B6B002B40F085807B68A1
:1029300000221A637B68DB6A3B65694A3B6D52F88B
:102940002330FB64FB6C002B66D165493B6D7A68D4
:1029500041F823207B687A681A627B687A685A6239
:1029600001223B6D02FA03F37B645E4B1A687B6CB9
:1029700013435C4A13605C4B1B683A6D9A427BD2EE
:10298000594A3B6D1360594B1B683B643B6C002BF1
:1029900003D1564A7B6813606EE03B6CDB6B3A6D8B
:1029A0009A4269D23B6CDA6B3B6CDB6A9A420BD081
:1029B0003B6CDB6A012202FA03F37B644C4B1A681E
:1029C0007B6C13434A4A1360484A7B6813607B6DF3
:1029D000FB62FB6A83F3108800BF404B1B68FB63FC
:1029E000FB6B002B74D1434B4FF080521A60EFF316
:1029F0000583BB62BB6A002B0CD1EFF310837B62B3
:102A00007B6A3B6262B600BF3B6AFB61FB6983F392
:102A1000108800BF00BF5BE0FB6C5B6ABB64BB6CF3
:102A20007A681A62FB6C7A685A627B68BA6C5A627E
:102A30007B68FA6C1A621FE07B6800225A637B682D
:102A400003221A6318E07B681B6B012B14D07B6890
:102A50001B6B022B10D07B685B6B002B06D17B6855
:102A600000229A637B6800221A6305E07B680022DB
:102A70005A637B6803221A631F4B1B68BB637B6D21
:102A8000BB61BB6983F3108800BF184B1B68BA6B2E
:102A90009A4220D0114B1B68FB63FB6B002B1AD1B1
:102AA000144B4FF080521A60EFF305837B617B6912
:102AB000002B0FD1EFF310833B613B69FB6062B6E3
:102AC00000BFFB68BB60BB6883F3108800BF01E0F8
:102AD00000BF00E000BF5837BD4680BD302C012448
:102AE000B02B0124A42B0124AC2B0124982B01240E
:102AF000A82B012404ED00E0942B012480B5A0B0A4
:102B000000AF78605A4B1B68BB67EFF310837B659F
:102B10007B6D3B6572B63B6DFB677A68BB6F9A4213
:102B200012D17B68DB6C7B677B6F002B08D07B6FDF
:102B3000B3F1FF3F04D07B684C33184600F01CFB18
:102B40007B68DB694B4A13604B4B1B68013B4A4A6D
:102B500013607B689B6B012B40F022817B68002215
:102B60009A637B68DB6A3B677B681B6AFB66FA6E6D
:102B70007B689A4227D07B685B6ABB65FB6EBA6D47
:102B80005A62BB6DFA6E1A623C4A3B6F52F82330B0
:102B90007A689A4240F08B8038493B6FFA6E41F870
:102BA0002320374B1B68002B00F0818001223B6FF4
:102BB00002FA03F3BB66324B1A68BB6EDB43134069
:102BC0002F4A136073E02D4A3B6F002142F8231017
:102BD00001223B6F02FA03F3BB662A4B1A68BB6EF5
:102BE000DB431340274A1360254B1B68002B0BD097
:102BF00001223B6F02FA03F3BB66214B1A68BB6EDE
:102C0000DB4313401E4A136000237B661D4B1B6889
:102C10003B663B6E002B3DD11B4B20221A601B4BA9
:102C200000221A60FB6FFB64FB6C83F3108800BF0B
:102C3000114B1B68FB65FB6D002B40F0DB80144BD8
:102C40004FF080521A60EFF30583BB64BB6C002B1E
:102C50000CD1EFF310837B647B6C3B6462B600BFE6
:102C60003B6CFB63FB6B83F3108800BF00BFC1E0CC
:102C7000942B0124A0310124302C0124B02B0124F9
:102C8000A82B0124A42B0124AC2B0124982B012474
:102C900004ED00E03B6E93FAA3F33B663B6EB3FAA0
:102CA00083F3BB667A6EBB6E1344564A1360564B71
:102CB0001B687A689A4273D1524B1B68534A52F888
:102CC0002330514A1360524B1B68002B43D0514BA9
:102CD0001B6801334F4A1360FB6F3B633B6B83F30D
:102CE000108800BFEFF31083BB63BB6B7B6372B6CE
:102CF0007B6BFB67474B1B68013B464A1360002315
:102D00007B66434B1B683B663B6E93FAA3F33B66C3
:102D10003B6EB3FA83F3BB667A6EBB6E13443B67BC
:102D20003A4A3B6F52F82330DA6B364B1B689A42B3
:102D300011D8364A3B6F52F82330334A13600122D0
:102D40003B6F02FA03F3BB66314B1A68BB6EDB4381
:102D500013402F4A1360FB6FFB62FB6A83F31088FA
:102D600000BF2C4B1B68FB65FB6D002B44D12A4B2D
:102D70004FF080521A60EFF30583BB62BB6A002BF1
:102D80000CD1EFF310837B627B6A3B6262B600BFBB
:102D90003B6AFB61FB6983F3108800BF00BF2BE037
:102DA000FB6FBB61BB6983F3108800BF164B1B68C8
:102DB000BA6F9A4222D0174B1B68FB65FB6D002B44
:102DC0001CD1154B4FF080521A60EFF305837B61E5
:102DD0007B69002B0CD1EFF310833B613B69FB60F7
:102DE00062B600BFFB68BB60BB6883F3108800BF9E
:102DF00000BF03E000BF02E000BF00E000BF80377B
:102E0000BD4680BDAC2B0124982B0124B02B01249E
:102E1000A82B0124302C012404ED00E080B487B0FD
:102E200000AF214B1B687B61EFF31083FB60FB68F5
:102E3000BB6072B6BB683B611C4B00221A607B69A9
:102E4000002B24D07B691B6B002B20D17B69DA69B6
:102E50007B699A617B699B69154A13607B691B6A70
:102E60007A699A4213D07B69DA6A7B69DB6B9A4292
:102E70000DD17B69DB6A7A69126A0E4941F8232019
:102E80000D4B1B680B4A52F823300C4A13603B6908
:102E90007B607B6883F3108800BF00BF1C37BD4692
:102EA0005DF8047B704700BF942B0124402C012463
:102EB000A0310124B02B0124AC2B0124982B012438
:102EC00080B58AB000AF78607B687B62EFF31083D7
:102ED0007B617B693B6172B63B693B627B6A1B6BC2
:102EE000042B0ED1134B1B680133124A13603B6A4B
:102EF000FB60FB6883F3108800BF786AFFF7EAFC89
:102F000013E07B6A9B6EFB617B6AD3F8B030BB61D8
:102F10003B6ABB60BB6883F3108800BFFB69002B72
:102F200003D0FB69B969786A984700BF2837BD4666
:102F300080BD00BF302C012480B487B000AFEFF318
:102F40001083BB60BB687B6072B67B687B61084B9B
:102F50001B683B617B69FB60FB6883F3108800BFE3
:102F60003B6918461C37BD465DF8047B704700BFBF
:102F70003C2C012480B58AB000AFF860B9607A605B
:102F80003B602C220021F86801F0BEFEFB68BA68A5
:102F90005A60FB683A6B9A60FB687A6BDA60FB6890
:102FA0007A681A61FB683A685A61EFF31083BB6173
:102FB000BB697B6172B67B697B62FB681C4A1A60E5
:102FC0001C4B1B68002B09D11B4AFB681360FB6874
:102FD000FA685A62FB68FA689A6211E0164B1B683D
:102FE0003B623B6A9B6AFB613B6AFA689A62FB69D7
:102FF000FA685A62FB68FA699A62FB683A6A5A622E
:103000000C4B1B6801330B4A1360BB6B012B04D1C3
:10301000FB680833184600F0AFF87B6A3B613B69F8
:1030200083F3108800BF002318462837BD4680BDB3
:103030004D495441D82C0124D42C012480B584B0AE
:1030400000AFEFF310837B607B683B6072B63B6838
:10305000FB60094B1B680133074A1360FB68BB60C8
:10306000BB6883F3108800BF0448FFF733FC00BF40
:103070001037BD4680BD00BF302C0124E02C012458
:1030800090B589B006AF284B00221A60274B00226A
:103090001A60274B00221A60264B00221A60264B2A
:1030A00000221A6080220021244801F02DFE244BCA
:1030B000224A1A60234B214A1A60234B234A1A6082
:1030C000214B1B680433204A1360214B214A1A60AC
:1030D000214B4FF480621A60204B00221A601C4B77
:1030E0001B681D4A12681D4909681C4800680024B5
:1030F0000594002404940390029101920093184BCC
:10310000184A19491948FFF791F978607B68002B34
:10311000E5D1174B00221A60164B00221A6000BF3F
:103120000C37BD4690BD00BF3C2C0124A0310124CA
:10313000402C0124D02C0124DC2C0124442C01241B
:10314000C42C0124CC2C0124C82C0124C02C012423
:10315000942D0124A02D0124982D01249C2D0124BF
:103160004D495441AD320000C4FC0308E02C012459
:10317000D42C0124D82C012480B489B000AF78600D
:103180007B681B687B617B69002B4AD07B69B3F14C
:10319000FF3F46D07B689B69002B42D17B69202B87
:1031A00002D91F23BB6102E07B69013BBB61204B5D
:1031B0001A68BB699B001344FB611E4B1B68FA69CC
:1031C0009A420BD31B4B1B68FA69D31A9B103B61C5
:1031D000194B1A683B699B001344FB61FB691B6830
:1031E000002B09D17B687A681A617B687A685A611A
:1031F000FB697A681A6011E0FB691B68FB60FB6879
:103200005B69BB60BB687A681A61FB687A685A615F
:103210007B68FA681A617B68BA685A617B68FA69E8
:103220009A6100BF2437BD465DF8047B704700BF3C
:10323000CC2C0124C82C0124C42C012480B487B0D8
:1032400000AF78607B689B697B617B69002B26D02F
:103250007B681B693B617A683B699A4208D17B694C
:103260001B687A689A4217D17B6900221A6013E0C2
:103270007B685B69FB603B69FA685A61FB683A6985
:103280001A617B691B687A689A4205D13B697A6941
:103290009A617B693A691A607B6800229A6100BF73
:1032A0001C37BD465DF8047B7047000080B598B0C0
:1032B00000AF786000237B657B68734A934240F0DF
:1032C000DE80EFF310833B643B6CFB6372B6FB6BF9
:1032D000FB656E4B1B681B68FB60FB68002B03D013
:1032E000FB6807F10C029A61684B1B6800221A60A8
:1032F000664B1B680433654A1360644B1A68644B61
:103300001B689A4203D1634B1B68604A1360624B8F
:1033100000221A60FB6D3B633B6B83F3108800BF98
:10332000EFF31083BB63BB6B7B6372B67B6BFB6598
:103330007FE0FB68FB64FB681B69BB640023BB6028
:10334000FA6CBB6C9A4202D10023FB600EE0FB6C6E
:103350005B697B64BB6C7A6C5A617B6CBA6C1A617A
:10336000BB6C07F10C029A61BB6CFB60FB6C1B68C9
:10337000202B11D9FB6C1B68A3F12002FB6C1A6097
:103380000023BB65FB6C07F108029A61FB6CFA6CC9
:103390001A61FB6CBB601AE0FB6C9B68BB65FB6C45
:1033A000DB687B65FB6C5A68FB6C1A60FB6C1B6806
:1033B000002B09D0FB6C07F108029A61FB6CFA6CD8
:1033C0001A61FB6CBB6002E0FB6C00229A61334A1D
:1033D000FB6C1360FB6DFB62FB6A83F3108800BF1C
:1033E000BB6D002B02D0BB6D786D9847EFF3108357
:1033F000BB62BB6A7B6272B67B6AFB65274B0022AD
:103400001A60BB68FA6C9A4205D1FB6C00229A6183
:10341000F86CFFF7B1FEFB6DBB61BB6983F31088ED
:1034200000BFEFF310833B623B6AFB6172B6FB693E
:10343000FB65FB68002B7FF47CAF174B1B68002BF0
:1034400016D1174B3B653B6D03221A633B6D01227E
:103450009A63144B1B680133124A1360FB6D7B6146
:103460007B6983F3108800BF386DFFF747FB28E7BF
:10347000FB6D3B613B6983F3108800BF21E700BF10
:103480006037BD4680BD00BF4D495441CC2C01245E
:10349000C82C0124C42C0124D02C0124DC2C0124B0
:1034A000E02C0124302C012400000000000000006A
:1034B0004FF000002A4A1060EFF3148020F004005F
:1034C00080F3148862B64FF080504FF0E021C1F8CD
:1034D000040DBFF34F8FBFF36F8FFEE72148224AE1
:1034E0004FF00003016891B10360EFF3098C2CE900
:1034F000F00F1EF0100F01D12CED108A1B4C4CF870
:1035000004ED2568C1F808C00DB18D61236072B665
:103510001168B1B1016062B64F68144C8D6907F152
:1035200001074F602560D1F808C05CF804EB1EF07D
:10353000100F01D1BCEC108ABCE8F00F8CF30988A5
:10354000704772B61168016009B962B6F9E74FF0C9
:1035500000674FF0E028C8F8047D62B6DCE77047EA
:10356000302C0124942B0124982B0124A031012418
:10357000026922F00702A2F144026FF00203136015
:103580004FF0000353609360D36013615361936104
:10359000D361136253629362D362136353634FF038
:1035A000FF339363D1634FF080731364826070477D
:1035B0002249086800F101000860214B1A683AB1FD
:1035C000A2F101021A601AB91E4B4FF001001860F7
:1035D0001D490868026822B11C4B4FF001021A60B5
:1035E00008E000F104001A4B1A68904201D1194B0F
:1035F00018680860134B1A6812B914490868D0B1EA
:103600002DE901401149086808B1FFF717FD0D4B7E
:103610001A6872B1FFF702FC0F48016849B90F48F8
:1036200001680F4A13680F484FF08052994200D04A
:103630000260BDE80140BFF34F8F70473C2C01246E
:10364000A0310124402C0124CC2C0124D02C0124B5
:10365000C82C0124C42C0124302C0124942B0124D7
:10366000982B012404ED00E080B58AB000AFF8602B
:10367000B9607A603B6000237B62FB68002B02D15B
:1036800002237B6229E0FB681B682D4A934202D02B
:1036900002237B6221E0BB68002B02D103237B6203
:1036A0001BE07B68002B02D105237B6215E0FB68E1
:1036B000DB697A689A4202D905237B620DE03B6898
:1036C000002B0AD0EFF30583FB61FA691D4B1B68E1
:1036D0001343002B01D004237B627B6A002B08D1AB
:1036E000194B1B683B623B6A184A934201D1132372
:1036F0007B627B6A002B14D1EFF30583BB61BA694F
:10370000104B1B681343002B0BD0EFF305837B6139
:103710007A690C4B1B681343B3F1F03F01D21323BA
:103720007B627B6A002B06D13B687A68B968F868CF
:10373000FCF700FE78627B6A18462837BD4680BDDC
:103740004554594210040020942B0124E02C0124FC
:1037500080B592B000AFF860B9607A603B6000233A
:103760007B64FB68002B02D102237B6475E03B6D18
:10377000342B02D002237B646FE0EFF31083FB62F3
:10378000FB6ABB6272B6BB6ABB633B4B1B6801330F
:10379000394A1360BB6B3B633B6B83F3108800BFFC
:1037A000364B1B68FB6300233B6409E0FA68FB6B44
:1037B0009A420BD0FB6BDB6AFB633B6C01333B64CF
:1037C0002F4B1B683A6C9A42F0D300E000BFEFF336
:1037D00010833B623B6AFB6172B6FB69BB63264B9D
:1037E0001B68013B244A1360BB6B7B627B6A83F3DB
:1037F000108800BFFFF734F8FA68FB6B9A4202D1D9
:1038000002237B6429E07B68002B02D103237B64C5
:1038100023E03B68632B02D805237B641DE0194B32
:103820001B687B637B6B184A934201D113237B6433
:10383000EFF30583BB61BA69144B1B681343002B7C
:103840000BD0EFF305837B617A69104B1B68134340
:10385000B3F1F03F01D213237B647B6C002B06D1C4
:103860003B687A68B968F868FCF7A6FE78647B6CF8
:1038700018464837BD4680BD302C0124842B0124D6
:10388000882B0124942B0124E02C01241004002017
:1038900080B586B000AF786000237B617B68002B29
:1038A00002D103237B611DE0144B1B683B613B6924
:1038B000134A934201D113237B61EFF30583FB602D
:1038C000FA68104B1B681343002B0BD0EFF30583F2
:1038D000BB60BA680B4B1B681343B3F1F03F01D2D6
:1038E00013237B617B69002B03D17868FDF708F80F
:1038F00078617B6918461837BD4680BD942B01243A
:10390000E02C01241004002080B592B000AFF860D4
:10391000B9607A6000237B64FB68002B02D1062328
:103920007B6469E07B68282B02D006237B6463E01C
:10393000EFF31083FB62FB6ABB6272B6BB6ABB63C8
:10394000344B1B680133334A1360BB6B3B633B6BE7
:1039500083F3108800BF304B1B68FB6300233B647C
:1039600009E0FA68FB6B9A420BD0FB6B9B69FB6327
:103970003B6C01333B64294B1B683A6C9A42F0D391
:1039800000E000BFEFF310833B623B6AFB6172B65D
:10399000FB69BB631F4B1B68013B1E4A1360BB6B7B
:1039A0007B627B6A83F3108800BFFEF759FFFA68D9
:1039B000FB6B9A4202D106237B641DE0184B1B6807
:1039C0007B637B6B174A934201D113237B64EFF334
:1039D0000583BB61BA69144B1B681343002B0BD0E2
:1039E000EFF305837B617A690F4B1B681343B3F1D7
:1039F000F03F01D213237B647B6C002B04D1B968A8
:103A0000F868FDF727F978647B6C18464837BD469F
:103A100080BD00BF302C01246C2B0124702B0124AD
:103A2000942B0124E02C01241004002080B58AB0DE
:103A300002AFF860B9607A603B600023FB61FB680D
:103A4000002B02D10623FB6125E0FB681B681E4AA0
:103A5000934202D00623FB611DE03B68002B02D19C
:103A60000323FB6117E0BB6A002B14D0EFF305833F
:103A70007B617A69154B1B681343002B02D004232A
:103A8000FB6108E0124B1B68BB61BB69114A9342A2
:103A900001D10423FB61FB69002B04D17B68032B5C
:103AA00001D90823FB61FB69002B08D1BB6A009395
:103AB0003B687A68B968F868FDF71AF9F861FB693C
:103AC00018462037BD4680BD4E44564410040020A1
:103AD000942B0124E02C012480B586B000AFF8605F
:103AE000B9607A6000237B61FB68002B02D106235A
:103AF0007B610FE0FB681B680D4A934202D00623EE
:103B00007B6107E07B68022B04D07B68002B01D02F
:103B100008237B617B69002B05D17A68B968F86856
:103B2000FDF7D0F978617B6918461837BD4680BD2E
:103B30004E44564480B592B000AFF860B9607A60E8
:103B40003B6000237B64FB68002B02D11C237B6459
:103B500053E03B68342B02D01C237B644DE0EFF331
:103B60001083FB62FB6ABB6272B6BB6ABB633A4BF3
:103B70001B680133384A1360BB6B3B633B6B83F3B9
:103B8000108800BF354B1B68FB6300233B6409E0D2
:103B9000FA68FB6B9A420BD0FB6B1B6AFB633B6CB6
:103BA00001333B642E4B1B683A6C9A42F0D300E021
:103BB00000BFEFF310833B623B6AFB6172B6FB69A7
:103BC000BB63254B1B68013B234A1360BB6B7B62C5
:103BD0007B6A83F3108800BFFEF742FEFA68FB6B36
:103BE0009A4202D11C237B6407E07B68012B04D03E
:103BF0007B68002B01D01F237B647B6C002B1DD1C5
:103C0000184B1B687B637B6B174A934201D11323CC
:103C10007B64EFF30583BB61BA69144B1B681343E4
:103C2000002B0BD0EFF305837B617A690F4B1B6888
:103C30001343B3F1F03F01D213237B647B6C002B61
:103C400005D17A68B968F868FDF798FC78647B6CF0
:103C500018464837BD4680BD302C0124742B012402
:103C6000782B0124942B0124E02C01241004002043
:103C700080B588B000AF786039600023FB617B6855
:103C8000002B02D11C23FB611FE07B681B68214ACB
:103C9000934202D01C23FB6117E03B68002B14D039
:103CA000EFF305837B617A691B4B1B681343002B81
:103CB00002D00423FB6108E0184B1B68BB61BB69A1
:103CC000174A934201D10423FB61FB69002B14D1F5
:103CD000EFF305833B613A690F4B1B681343002BDD
:103CE0000BD0EFF30583FB60FA680B4B1B681343A3
:103CF000B3F1F03F01D21323FB61FB69002B04D128
:103D000039687868FDF794FCF861FB69184620373C
:103D1000BD4680BD4554554D10040020942B012410
:103D2000E02C012480B586B000AF786000237B6171
:103D30007B68002B02D11C237B611CE07B681B6825
:103D4000134A934202D01C237B6114E0EFF30583F6
:103D50003B613A690F4B1B681343002B0BD0EFF309
:103D60000583FB60FA680B4B1B681343B3F1F03F0C
:103D700001D213237B617B69002B03D17868FDF7A7
:103D8000DDFE78617B6918461837BD4680BD00BFEF
:103D90004554554D1004002080B594B002AFF86032
:103DA000B9607A603B6000237B64FB68002B02D122
:103DB00009237B6483E07B6D3C2B02D009237B6469
:103DC0007DE0EFF31083FB62FB6ABB6272B6BB6AF5
:103DD000BB63434B1B680133414A1360BB6B3B63BE
:103DE0003B6B83F3108800BF3E4B1B68FB630023D3
:103DF0003B6409E0FA68FB6B9A420BD0FB6B1B6BD0
:103E0000FB633B6C01333B64374B1B683A6C9A4253
:103E1000F0D300E000BFEFF310833B623B6AFB612D
:103E200072B6FB69BB632E4B1B68013B2C4A1360C7
:103E3000BB6B7B627B6A83F3108800BFFEF710FDCB
:103E4000FA68FB6B9A4202D109237B6437E03B6836
:103E5000002B02D103237B6431E07B68002B02D16D
:103E600005237B642BE07B68102B02D905237B6440
:103E700025E03B6D9B087A689A4202D905237B6452
:103E80001DE01A4B1B687B637B6B194A934201D17F
:103E900013237B64EFF30583BB61BA69154B1B6881
:103EA0001343002B0BD0EFF305837B617A69114B31
:103EB0001B681343B3F1F03F01D213237B647B6C87
:103EC000002B08D13B6D00933B687A68B968F868AD
:103ED000FEF75AF878647B6C18464837BD4680BDBB
:103EE000302C0124642B0124682B0124942B012401
:103EF000E02C01241004002080B584B000AF78606D
:103F000039607B68002B02D10C23FB6012E07B68D8
:103F10001B680B4A934202D00C23FB600AE03B680B
:103F2000002B02D12223FB6004E039687868FEF799
:103F30009FF8F860FB6818461037BD4680BD00BF8B
:103F4000414D455380B592B000AFF860B9607A60DA
:103F50003B6000237B64FB68002B02D10C237B6455
:103F600054E03B68202B02D00C237B644EE0EFF33F
:103F70001083FB62FB6ABB6272B6BB6ABB63364BE3
:103F80001B680133344A1360BB6B3B633B6B83F3A9
:103F9000108800BF314B1B68FB6300233B6409E0C2
:103FA000FA68FB6B9A420BD0FB6B5B69FB633B6C63
:103FB00001333B642A4B1B683A6C9A42F0D300E011
:103FC00000BFEFF310833B623B6AFB6172B6FB6993
:103FD000BB63214B1B68013B1F4A1360BB6B7B62B9
:103FE0007B6A83F3108800BFFEF73AFCFA68FB6B2C
:103FF0009A4202D10C237B6408E01A4B1B687B6356
:104000007B6B194A934201D113237B647B6C002B99
:1040100014D1EFF30583BB61BA69144B1B681343DA
:10402000002B0BD0EFF305837B617A690F4B1B6884
:104030001343B3F1F03F01D213237B647B6C002B5D
:1040400005D17A68B968F868FEF70CF978647B6C7A
:1040500018464837BD4680BD302C01245C2B012416
:10406000602B0124942B0124E02C01241004002057
:1040700080B586B000AF7860396000237B617B68D3
:10408000002B02D10C237B611FE07B681B68154A63
:10409000934202D00C237B6117E03B68002B14D0C5
:1040A000EFF30583FB60FA680F4B1B681343002B8B
:1040B00002D004237B6108E00C4B1B683B613B6929
:1040C0000B4A934201D104237B617B69002B04D10D
:1040D00039687868FEF718F978617B6918461837EF
:1040E000BD4680BD414D455310040020942B012452
:1040F000E02C012480B59AB006AFF860B9607A6010
:104100003B600023FB64FB68002B02D10E23FB64A1
:10411000BBE03B6FB42B02D00E23FB64B5E0EFF3A2
:104120001083BB62BB6A7B6272B67B6AFB63644BC3
:104130001B680133624A1360FB6BFB62FB6A83F30B
:10414000108800BF0023BB645E4B1B683B64BB6DE3
:10415000BB63FB6D013BBA6B1344BB63BB6B7B63FF
:1041600000237B642BE0FA683B6C9A4201D1012367
:10417000BB64BB6C012B28D03B6CDB68BA6D9A42E8
:1041800008D33B6C1B69BA6D9A4203D20023BB650E
:104190000123BB643B6CDB687A6B9A4208D33B6CAF
:1041A0001B697A6B9A4203D20023BB650123BB646F
:1041B0003B6CD3F888303B647B6C01337B64424BAF
:1041C0001B687A6C9A42CED300E000BFEFF31083F5
:1041D000FB61FB69BB6172B6BB69FB63384B1B6853
:1041E000013B374A1360FB6B3B623B6A83F31088E9
:1041F00000BFFEF735FBFA683B6C9A4202D10E23F2
:10420000FB6442E0BB6D002B02D10323FB643CE066
:104210007B68002B02D10323FB6436E0FB6DC72BC8
:1042200002D80523FB6430E03B6E1F2B02D90F231D
:10423000FB642AE07A6E3B6E9A4202D91823FB6433
:1042400023E0FB6E012B02D91023FB641DE01F4B02
:104250001B683B633B6B1E4A934201D11323FB64F3
:10426000EFF305837B617A691A4B1B681343002BBC
:104270000BD0EFF305833B613A69164B1B68134380
:10428000B3F1F03F01D21323FB64FB6C002B12D17E
:10429000FB6E0593BB6E04937B6E03933B6E0293A0
:1042A000FB6D0193BB6D00933B687A68B968F86851
:1042B000FEF7BCF8F864FB6C18465037BD4680BD6D
:1042C000302C01249C2B0124A02B0124942B0124AD
:1042D000E02C01241004002080B596B004AFF860F3
:1042E000B9607A603B6000237B64FB68002B02D1DD
:1042F00015237B6459E0FB6D2C2B02D015237B64C6
:1043000053E0EFF31083FB62FB6ABB6272B6BB6AD9
:10431000BB63414B1B6801333F4A1360BB6B3B637C
:104320003B6B83F3108800BF3C4B1B68FB6300238F
:104330003B6409E0FA68FB6B9A420BD0FB6B5B6A4B
:10434000FB633B6C01333B64354B1B683A6C9A4210
:10435000F0D300E000BFEFF310833B623B6AFB61E8
:1043600072B6FB69BB632C4B1B68013B2A4A136086
:10437000BB6B7B627B6A83F3108800BFFEF770FA29
:10438000FA68FB6B9A4202D115237B640DE03B6D0A
:10439000002B02D116237B6407E0BB6D012B04D0F8
:1043A000BB6D002B01D017237B647B6C002B1DD1D0
:1043B0001C4B1B687B637B6B1B4A934201D113230D
:1043C0007B64EFF30583BB61BA69184B1B68134329
:1043D000002B0BD0EFF305837B617A69134B1B68CD
:1043E0001343B3F1F03F01D213237B647B6C002BAA
:1043F0000CD1BB6D02937B6D01933B6D00933B68C9
:104400007A68B968F868FEF7B5FD78647B6C184681
:104410004837BD4680BD00BF302C0124D42C012478
:10442000D82C0124942B0124E02C0124100400201A
:1044300080B483B000AF78607B681A697B68DB6802
:104440009A420CBF01230023DBB218460C37BD464D
:104450005DF8047B704780B483B000AF78607B6800
:104460001A697B68DB68D21A7B685B681340184660
:104470000C37BD465DF8047B7047000080B584B002
:1044800000AFF860B9607A607B685A1E7B681340A1
:10449000002B05D00B4B0C4A0C210C4800F038FCCB
:1044A000FB68BA681A607B685A1EFB685A60FB6832
:1044B0000022DA60FB6800221A6100BF1037BD4697
:1044C00080BD00BF24FD0308341404084CFD03081C
:1044D00090B589B000AFF860B9607A60BB687B6165
:1044E000FB685C68F868FFF7B6FF0346E31A3B61B8
:1044F0003A697B68934228BF13463B61FB685A6860
:10450000FB681B69D31A0133FB61FA693B699A4264
:1045100004D93B69FB610023BB6103E03A69FB6995
:10452000D31ABB61FB681A68FB681B691344FA69FC
:104530007969184600F0F8FBBB69002B08D0FB68CE
:1045400018687A69FB691344BA69194600F0ECFBF4
:10455000FB681A693B691A44FB685B681A40FB6890
:104560001A613B6918462437BD4690BD80B588B0B6
:1045700000AFF860B9607A60BB687B61F868FFF7EC
:1045800057FF0346002B01D000233DE0F868FFF7FA
:1045900062FF38613A697B68934228BF13463B61EA
:1045A000FB685A68FB68DB68D31A0133FB61FA6960
:1045B0003B699A4204D93B69FB610023BB6103E07C
:1045C0003A69FB69D31ABB61FB681A68FB68DB6850
:1045D0001344FA691946786900F0A6FBBB69002B01
:1045E00008D07A69FB69D018FB681B68BA6919465C
:1045F00000F09AFBFB68DA683B691A44FB685B6869
:104600001A40FB68DA603B6918462037BD4680BD1A
:1046100080B582B000AF7860044B1B68796818469B
:1046200000F086F800BF0837BD4680BDDC120024CC
:1046300080B582B000AF7860044B5B68796818463B
:1046400000F076F800BF0837BD4680BDDC120024BC
:1046500080B582B000AF7860044B9B6879681846DB
:1046600000F066F800BF0837BD4680BDDC120024AC
:1046700080B582B000AF7860044BDB68796818467B
:1046800000F056F800BF0837BD4680BDDC1200249C
:1046900080B582B000AF7860044B1B69796818461A
:1046A00000F046F800BF0837BD4680BDDC1200248C
:1046B00080B582B000AF7860044B5B6979681846BA
:1046C00000F036F800BF0837BD4680BDDC1200247C
:1046D00080B582B000AF7860044B9B69796818465A
:1046E00000F026F800BF0837BD4680BDDC1200246C
:1046F00080B582B000AF7860044BDB6979681846FA
:1047000000F016F800BF0837BD4680BDDC1200245B
:1047100080B582B000AF7860044B1B6A7968184698
:1047200000F006F800BF0837BD4680BDDC1200244B
:1047300080B58CB000AF786039607B681B68BB6265
:104740000023FB62EFF310837B617B693B6172B6F0
:104750003B697B627B6803F58053012283F8282044
:104760003A6840F242331340002B41D0BB6A5B6A87
:10477000984703463B62BB6A9B6A00211920984711
:104780007B681B6AFB617B682433FA699A4204D117
:104790007B68243303F5807301E07B6824337A68F7
:1047A00013627B689B8BBB617B6800229A83BB6A28
:1047B0009B697A68126A4FF48071104698470246E6
:1047C0007B681A613B6ABA699A420BD27B6803F52F
:1047D0004970FA69BB69D1183A6ABB69D31A1A469B
:1047E000FFF776FE7B681B69002B01D00223FB627A
:1047F0003B6803F00103002B26D07B6803F54E7065
:104800007B6803F509734FF480721946FFF7AEFE1B
:1048100003469AB27B68DA837B68DB8B002B0BD074
:10482000BB6A5B697A6802F509707A68D28B1146B7
:10483000984702467B685A617B685B69002B03D00E
:10484000FB6A43F00403FB627B6AFB60FB6883F353
:10485000108800BF7B6803F580530022F96A184670
:10486000FFF73AF900BF3037BD4680BD80B58CB048
:1048700002AF78607B683B624FF0FF337B623B6A3C
:104880001B68FB61FB699B683A6A9269104698470E
:10489000FB691B6902209847FB699B6A3A6A916829
:1048A0003A6AD2680A4342F001003A6A52681146F5
:1048B0009847FB699B6A012115209847FB699B6A11
:1048C0000121162098473B6A03F124023B6A1A62D1
:1048D000FB699B693A6A126A4FF4807110469847E7
:1048E00002463B6A1A613B6A03F58053002283F853
:1048F00028200023BB603B6A1B69002B03D13B6A65
:104900005B69002B01D0012301E04FF0FF337B6294
:104910003B6A03F5805393F82830002B05D17B6A5E
:10492000B3F1FF3F01D164237B623B6A03F5805002
:1049300007F108027B6A0093134601220721FFF763
:1049400075F8BB6803F00203002B0AD0FB699B6972
:104950003A6A126A4FF480711046984702463B6AE1
:104960001A61BB6803F00403002B0BD0FB695B6981
:104970003A6A02F509703A6AD28B114698470246A4
:104980003B6A1A61BB6803F00103002B30D03B6A1D
:10499000DB8B002B2CD1EFF310833B613B69FB6079
:1049A00072B6FB68BB613B6A03F54E703B6A03F568
:1049B00009734FF480721946FFF7D8FD03469AB287
:1049C0003B6ADA83BB697B617B6983F3108800BF34
:1049D0003B6ADB8B002B0BD0FB695B693A6A02F503
:1049E00009703A6AD28B1146984702463B6A5A616F
:1049F0003B6A03F5805393F82830002B7FF479AF9E
:104A0000FB699B693A6A126A4FF4807110469847B5
:104A100002463B6A1A616CE780B58EB000AFF86061
:104A2000B9607A6000237B63314AFB6852F8233017
:104A30003B63FB68002B08DBFB68082B05DCBB68CD
:104A4000002B02D03B6B002B02D14FF0FF334AE02A
:104A5000EFF31083FB61FB69BB6172B6BB69FB625C
:104A60003B6B03F549737A68B9681846FFF77EFD1A
:104A700003467B637B6B7A689A422DD93B6B1B683C
:104A80005B6A98470346BB623B6B9B8B1A46BB6ACB
:104A9000934221DD3B6B9B8B1A46BB6A9B1A7B6260
:104AA0007B6B7A68D31A7A6A934228BF13463B62BB
:104AB0007B6BBA68D0183B6B1B6A3A6B928B1344C2
:104AC0003A6A194600F030F97A6B3B6A13447B630B
:104AD000BB6A9AB23B6B9A83FB6A7B617B6983F307
:104AE000108800BF7B6B18463837BD4680BD00BFBD
:104AF000DC12002480B58AB000AFF860B9607A603B
:104B000000237B621C4AFB6852F823303B62FB683F
:104B1000002B08DBFB68082B05DCBB68002B02D0F0
:104B20003B6A002B02D14FF0FF3320E0EFF31083FC
:104B30007B617B693B6172B63B69FB613B6A03F554
:104B40004E737A68B9681846FFF7C2FC03467B6269
:104B5000FB69BB61BB6983F3108800BF3B6A03F547
:104B60008053002201211846FEF7B6FF7B6A1846E3
:104B70002837BD4680BD00BFDC12002480B592B04E
:104B800008AFF860B9607A603B6000233B6107F1D1
:104B90001001002342F29C72F868FEF765FD3B6944
:104BA000002B02D14FF0FF3380E03B6942F29C7250
:104BB0000021184600F0A8F8EFF31083FB61FB69B1
:104BC000BB6172B6BB693B6200237B6214E0394A69
:104BD0007B6A52F82330002B0BD13A6935497B6A46
:104BE00041F823203B6934497A6A51F822209A61BE
:104BF00005E07B6A01337B627B6A082BE7D93B6A5D
:104C00007B617B6983F3108800BF7B6A082B06D920
:104C10003B691846FEF73CFE4FF0FF3346E03B6928
:104C200003F549703B6903F553734FF4006219466D
:104C3000FFF724FC3B6903F54E703B6903F64C33E8
:104C40004FF480621946FFF719FC3B69BA681A6095
:104C50003B697A685A603B693A689A603B693A6B8B
:104C6000DA603B6903F58053282214491846FEF7A1
:104C70004BFE3B6903F64C703B6919463A6941F2B9
:104C80002C031344B42206920122059200220492BE
:104C9000112203921122029241F27072019200934A
:104CA0000B46074A0749FFF725FA7B6A184628375B
:104CB000BD4680BDDC120024880F040894FB030865
:104CC0006D480000A0FB030880B500AF0C4BD3F883
:104CD0001B00D3F81F104FF0C8024FF0000300F084
:104CE0001FF813430AD1064B5B79002B06D1054B05
:104CF0005B6903F58053002283F8282000BF80BD44
:104D0000FC440124DC1200245FF800F0B7BD030866
:104D10005FF800F009B203085FF800F0F54E0008F4
:104D20005FF800F0C9F703085FF800F031CA030824
:104D30000348044B834202D0034B03B1184770472A
:104D40007C1B00207C1B0020000000000548064B57
:104D50001B1AD90F01EBA301491002D0034B03B179
:104D6000184770477C1B00207C1B002000000000BF
:104D700010B5064C237843B9FFF7DAFF044B13B1A3
:104D80000448AFF300800123237010BD000000240D
:104D900000000000304D000808B5054B1BB1054967
:104DA0000548AFF30080BDE80840FFF7CFBF00BF64
:104DB0000000000004000024304D000880B483B0DF
:104DC00000AF786000BFFDE780B588B000AF07F1A5
:104DD0000C0300221A605A609A60DA601A612F4B45
:104DE000D3F8E0302D4A43F48073C2F8E0302B4B07
:104DF000D3F8E03003F48073BB60BB68274BD3F873
:104E0000E030264A43F00103C2F8E030234BD3F8E8
:104E1000E03003F001037B607B6800224FF4005117
:104E20001F4807F0D5FA00224FF480411C4807F0D4
:104E3000CFFA012208211B4807F0CAFA4FF40053A9
:104E4000FB6001233B6100237B610023BB6107F111
:104E50000C031946124807F023F94FF48043FB6016
:104E600001233B6100237B610023BB6107F10C033D
:104E700019460B4807F014F90823FB6001233B6136
:104E800000237B610023BB6107F10C031946054831
:104E900007F006F900BF2037BD4680BD0044025828
:104EA000002002580000025880B582B000AF786040
:104EB000FFF78AFF4FF4FA703AF022FE4FF40051E8
:104EC000044807F08AFA4FF48041024807F085FA57
:104ED00000BFEFE70020025880B582B000AF7860D5
:104EE000396001F083FA3AF0F7FD002318460837DD
:104EF000BD4680BD80B58CB008AF7860244A254B94
:104F0000D31AFB604FF0FF33BB6034230093FB6880
:104F1000204A214921483AF0E3FDB42306930123B6
:104F20000593002304931F2303931F2302934FF43D
:104F3000807301931A4B009300231A4A1A491B48A5
:104F40003AF0E6FDBB68B4220692012205920022E7
:104F500004921B2203921B2202924FF48052019270
:104F6000134A0092134A144914483AF0D1FD0B48F1
:104F700000F0A2FE094800F04BFF084800F0DCFEFC
:104F8000064821F099FA00BF1037BD4680BD00BF2A
:104F9000008004300000003070FB030884120024FD
:104FA000D0000024BD4D00087CFB03081C00002439
:104FB00084020024A94E000884FB0308D0010024C9
:104FC00080B582B000AF78607B6803F00103002BEE
:104FD00003D0012103483AF0A3FD00BF0837BD46C6
:104FE00080BD00BFBC12002480B586B000AF7860E1
:104FF000184B3B619F23FB60174B1B685B6A0121C9
:1050000013209847144B1B68DB6907F1100107F167
:105010000C00042298474FF4FA7110483AF064FDEE
:1050200078610D4B1B685B6A0021132098477B69F0
:10503000002B03D13B691A0A7B681A607B69002B3D
:1050400001D1002301E04FF0FF3318461837BD4669
:1050500080BD00BF68EFCDABB8120024BC120024A5
:1050600080B588B000AF78600023FB6105233B82E8
:105070007B68BB611A4B1B685B6A01211320984750
:10508000174B1B68DB6907F10C0107F110000222C6
:1050900098474FF4FA7113483AF026FD7861104BA7
:1050A0001B685B6A0021132098477B69002B03D0A3
:1050B0004FF0FF33FB610DE07B7B03F00103002B1E
:1050C00002D10023FB6105E005203AF019FDBB6920
:1050D000002BCFD1FB6918462037BD4680BD00BFED
:1050E000B8120024BC12002480B582B000AF0623A1
:1050F000FB7000237B60114B1B685B6A012113204E
:1051000098470E4B1B685B69FA1C012110469847B3
:105110004FF4FA710A483AF0E7FC0346002B02D03C
:105120004FF0FF337B60054B1B685B6A0021132047
:1051300098477B6818460837BD4680BDB8120024E2
:10514000BC12002480B588B000AFF860B9607A6006
:10515000FB68FB610B233B74FB691B0CDBB27B74AC
:10516000FB691B0ADBB2BB74FB69DBB2FB74FF2378
:105170003B75204B1B685B6A012113209847002177
:105180001D483AF0B1FC1B4B1B685B6907F110022C
:105190000521104698474FF4FA7117483AF0A4FCDD
:1051A0000346002B08D0134B1B685B6A00211320B9
:1051B00098474FF0FF3318E00E4B1B689B697968E6
:1051C000B86898474FF4FA710B483AF08DFCB86113
:1051D000084B1B685B6A002113209847BB69002BB2
:1051E00002D04FF0FF3300E07B6818462037BD4601
:1051F00080BD00BFB8120024BC12002480B58CB062
:1052000000AFF860B9607A60FB68FB627B68BB62E4
:10521000BB687B6200233B626DE0FFF765FF38628D
:105220003B6A002B01DA3B6A69E0FB6ADBB2C3F53B
:105230008073FB61FA69BB6A934228BF1346FB6126
:1052400002233B75FB6A1B0CDBB27B75FB6A1B0AF6
:10525000DBB2BB75FB6ADBB2FB752B4B1B685B6A71
:10526000012113209847002128483AF03DFC264BA5
:105270001B685B6907F114020421104698474FF43C
:10528000FA7122483AF030FC0346002B08D01E4B3E
:105290001B685B6A0021132098474FF0FF332EE014
:1052A000194B1B685B69F969786A98474FF4FA7182
:1052B00016483AF019FCB861134B1B685B6A002171
:1052C00013209847BB69002B06D14FF47A70FFF783
:1052D000C7FE0346002B02DA4FF0FF330FE0BA6A35
:1052E000FB69D31ABB62FA6AFB691344FB627A6AF0
:1052F000FB6913447B62BB6A002B8ED17B68184626
:105300003037BD4680BD00BFB8120024BC12002457
:1053100080B588B000AF786039600023FB617B689E
:10532000BB617A683B6813447B6143E0FFF7DCFEB6
:105330000346002B02DA6FF0010340E052233B7377
:10534000BB691B0CDBB27B73BB691B0ADBB2BB7393
:10535000BB69DBB2FB731C4B1B685B6A012113202A
:105360009847194B1B685B6907F10C020421104632
:1053700098474FF4FA7115483AF0B6FB3861124B72
:105380001B685B6A0021132098473B69002B06D1FC
:105390004FF47A70FFF764FE0346002B02DA6FF0D9
:1053A00002030CE0BB6903F50043BB61FB6903F535
:1053B0000043FB61BA697B699A42B7D3FB6918461F
:1053C0002037BD4680BD00BFB8120024BC120024A7
:1053D00080B584B000AF786039600023FB601D4B5E
:1053E0001B68002B02D17B68002B02D14FF0FF33EA
:1053F0002BE020230022184918483AF0ADFB154A4B
:105400007B681360134B1B689B6815489847114BCA
:105410001B681B69022098470E4B1B685B6A114989
:10542000114898470B4B1B685B6A00211320984773
:1054300006E00023FB6007F10C031846FFF7D4FDDC
:10544000FB680A4A9342F4D1002318461037BD4640
:1054500080BD00BFB812002488FB0308BC120024E2
:10546000C14F000800127A0001800800C8401800EF
:1054700080B582B000AF78600022796803483AF0C6
:1054800043FB00BF0837BD4680BD00BF00130024AA
:1054900090B589B002AFF8607A603B600B46FB7252
:1054A00000237B6107F1140300220092012240F2E5
:1054B000FF1119483AF020FBFB689C69F87A002339
:1054C0003A687968A0470346002B05D0134B144A6D
:1054D0002B21144835F098FE07F1140302220092A4
:1054E000012240F2FF110C483AF006FB0346002B64
:1054F00002D04FF0FF330AE07B6903F00203002B78
:1055000004D0FB685B6A9847034600E03B68184696
:105510001C37BD4690BD00BF00130024A8FB030844
:10552000AC0F0408ECFB030890B589B002AFF8603B
:105530007A603B600B46FB7200237B6107F114032A
:1055400000220092012240F2FF1119483AF0D4FAE9
:10555000FB685C69F87A00233A687968A0470346DB
:10556000002B05D0134B144A4621144835F04CFE4D
:1055700007F1140302220092012240F2FF110C48AD
:105580003AF0BAFA0346002B02D04FF0FF330AE09C
:105590007B6903F00203002B04D0FB685B6A984729
:1055A000034600E03B6818461C37BD4690BD00BF6F
:1055B000001300240CFC0308BC0F0408ECFB0308D8
:1055C0002DE9B0438AB000AFF860B9607A6007F1A6
:1055D000100204232821F868FFF75AFF0346042B22
:1055E00002D04FF0FF338FE03B7C03F03F037B831F
:1055F0007B8B1B029BB27A7C13447B837B8B7B610E
:10560000444B1B68002B44DD7B699BB2A3F5005320
:105610009AB2404B1B68013B11B23F4A22F813106B
:105620003C4B1B68013B3B4A13603A4B1B68002B09
:105630002FD14FF000024FF00003C7E908230023E9
:10564000FB6112E0344AFB6932F913301BB2DA17FE
:105650001C461546D7E9082312EB040843EB05095D
:10566000C7E90889FB690133FB61FB69092BE9DDA7
:10567000D7E908013AF07AF841EC150BB2EE046B69
:1056800085EE067BFDEEC77B17EE903A1AB2234BF0
:105690001A80224BB3F900301A467B699B1A7B6152
:1056A0007B6907EE903AF8EEE77A9FED1D7A77EE88
:1056B000C77A37EEA77ADFED1B6AC7EE267AB7EE18
:1056C000007A77EEC77ABB68C3ED007ABB7C7B8338
:1056D0007B8BDB009AB2FB7C5B09DBB203F0070338
:1056E0009BB213447B837B8B07EE903AF8EEE77A0C
:1056F0009FED0D7A67EE877A9FED0C7A77EEC77A89
:105700007B68C3ED007A002318462837BD46BDE804
:10571000B08300BF000400202C13002428130024B1
:105720009AC9CC449AC94C460000C83D0000484282
:1057300080B584B000AF786039600023FB6032E050
:10574000FB68DBB25B00DBB2603BDBB23B7207F1B4
:105750000802012377217868FFF7E6FE0346012B54
:1057600002D04FF0FF3322E007F108020223772135
:105770007868FFF78DFE0346022B02D04FF0FF330F
:1057800015E03B7A1B029AB27B7A1846FB685B00F5
:1057900039680B44024492B21A8005203AF0B0F9FD
:1057A000FB680133FB60FB68072BC9D9002318464F
:1057B0001037BD4680BD80B586B000AFF860B960D7
:1057C0007A6000237B6144233B7507F114020123B7
:1057D0007721F868FFF7A8FE0346012B02D04FF0AF
:1057E000FF3361E003203AF08BF900233B7507F1AA
:1057F000140201237721F868FFF796FE0346012B78
:1058000002D04FF0FF334FE007F11402032377215A
:10581000F868FFF73DFE0346032B02D04FF0FF333D
:1058200042E03B7D1A047B7D1B021344BA7D134486
:105830001A46BB681A6052233B7507F11402012314
:105840007721F868FFF770FE0346012B02D04FF076
:10585000FF3329E002203AF053F900233B7507F1AA
:10586000140201237721F868FFF75EFE0346012B3F
:1058700002D04FF0FF3317E007F114020323772122
:10588000F868FFF705FE0346032B02D04FF0FF3305
:105890000AE03B7D1A047B7D1B021344BA7D13444E
:1058A0001A467B681A60002318461837BD4680BD2B
:1058B00080B5A4B000AF7860B34B7B6700233B6238
:1058C0000023FB617B6F9B68B04898477B6F1B6927
:1058D000022098477B6F9B6A0121022098477B6FCB
:1058E0009B6A00210320984707F10C031946786F43
:1058F000FFF71EFF02203AF003F907F1240207F137
:1059000028031946786FFFF75BFE02203AF0F8F89B
:1059100007F11C0207F120031946786FFFF74BFFD0
:105920003B6A3B67FB69FB66FB89BB663B8A7B6620
:105930007B8A3B66BB8AFB65FB8ABB653B8B7B65D1
:105940004FF000024FF00003C7E922234FF000029E
:105950004FF00003C7E920234FF000024FF000038F
:10596000C7E91E23BB6D1B02FA6ED31A3B653B6D64
:1059700007EE903AB8EEE76B7B6D07EE903AF8EEE3
:10598000E77AB7EEE75A9FED704B85EE047B26EE83
:10599000077B9FED6F6B37EE067BF7EEC77BC7ED9E
:1059A000137A7B6E07EE903AB8EEE77B9FED6A6B59
:1059B00027EE066BFB6D07EE903AB8EEE75B3B6DAA
:1059C00007EE903AB8EEE77B25EE075B9FED644B60
:1059D00085EE047B36EE077B87ED107BBB6E07EE12
:1059E000903AB8EEE77B9FED606B27EE066B3B6E5F
:1059F00007EE903AB8EEE75B3B6D07EE903AB8EEF3
:105A0000E77B25EE075B9FED5A4B85EE047B36EE78
:105A1000077B87ED0E7B3B6F07EE903AB8EEE76BA6
:105A20009FED535B86EE057BF7EEC74B97ED0E6B54
:105A30009FED515B86EE057BF7EEC77B64EEA77AA0
:105A4000B7EEE76A97ED105B9FED474B85EE047B61
:105A500036EE477BF7EEC77BC7ED0D7AD7ED137AAD
:105A60009FED4B7AF4EEC77AF1EE10FA40F1968092
:105A70003B6D07EE903AB8EEE76B3B6D07EE903A60
:105A8000B8EEE77B26EE076B9FED3D5B86EE057B70
:105A900087ED227BD7ED137A9FED3D7A37EEC77AFB
:105AA000D7ED137ADFED3A6A77EEE67A67EE277A7A
:105AB000C7ED0C7AD7ED0C7AB7EEE77AB0EE046B4F
:105AC00027EE067B87ED207BD7ED0C7AB7EEE77AE1
:105AD000B7EE046B27EE067B87ED1E7BD7ED137ABE
